:100000000C9466000C94C90F0C94A20F0C948E00F3
:100010000C948E000C948E000C948E000C948E0028
:100020000C948E000C948E000C948E000C94E201C3
:100030000C948E000C948E000C948E000C948E0008
:100040000C94580F0C948E000C942B100C940510EB
:100050000C948E000C948E000C948E000C948E00E8
:100060000C948E000C948E00CF03E003F203030483
:100070000C0455045D046D047E040000000024009F
:1000800027002A0000000000250028002B0004049F
:100090000404040404040202020202020303030330
:1000A000030301020408102040800102040810200C
:1000B00001020408102000000008000201000003F3
:1000C000040700000000000000001C2211241FBED5
:1000D000CFEFD8E0DEBFCDBF12E0A0E0B1E0ECEBA7
:1000E000F6E402C005900D92AA3AB107D9F728E0CC
:1000F000AAEAB2E001C01D92AA33B207E1F710E00C
:10010000C6E6D0E004C02197FE010E942D23C5362B
:10011000D107C9F70E94391E0C945C230C9400008F
:10012000FC01848595850895FC018489958908954D
:1001300026EB31E0FC0131832083FB0140895189AA
:1001400062897389FC0142835383648375830895B4
:10015000DC01ED91FC91048CF58DE02D099480E09B
:1001600008958091AC02882309F447C029B1287012
:1001700080918400909185003091B20531110DC0BD
:10018000E091B005F091B105E05DFB4F4091B00505
:100190005091B105A0EBB5E00CC0E0912E04F091B8
:1001A0002F04E255FD4F40912E0450912F04AEE2F2
:1001B000B4E041385140B0F4211103C040E050E8B0
:1001C00002C040E050E496958795842B952B908350
:1001D00081831092AD028D919C9111970296119698
:1001E0009C938E93222349F08091AA029091AB02B6
:1001F00001969093AB028093AA020895FC01768742
:1002000065870895DC01ED91FC91068CF78DE02D5A
:10021000099591E089270895862F089581E0862722
:10022000089521E0FC018485843008F020E0822FCD
:100230000895089580E090E00895CF93DF93EA0158
:10024000DC01E0E0F0E0E617F70781F05D91503265
:1002500081F0593071F0F983E883DC01AE0FBF1FE4
:100260008D91803241F0893061F405C080E090E0EA
:1002700010C03196E8CFD901ED93FC9381E090E076
:1002800008C03196E617F70758F3D9016D937C93B0
:10029000F5CFDF91CF9108950F931F93CF93DF9305
:1002A000DC01EA0150968C915097853008F07CC0B3
:1002B0001F969C911F97980F953008F095508F5F6F
:1002C00050968C935097092F10E0FD0187E0989F7E
:1002D000E00DF11D1124618F693048F46730A0F5FD
:1002E0006330F9F0B8F0663008F061C020C06E30BD
:1002F00050F46C3008F051C088819981948B838BC5
:1003000082E090E047C0633851F108F450C066388D
:1003100070F04DC08881838B81E090E0908F878B57
:1003200048C0D48BC38B21153105F9F026C047E0B6
:10033000409FC001419F900D1124A80FB91F5496F2
:10034000DC93CE93539721C088819981AA81BB8188
:10035000838B948BA58BB68B84E090E01BC0D48BF1
:10036000C38B2115310549F42196FE01019000202F
:10037000E9F731979F012C1B3D0B47E0409FC001DF
:10038000419F900D1124A80FB91F58963C932E93AE
:10039000579707C0908F878B04C0D48BC38B308F47
:1003A000278B81E090E005C080E090E002C08FEFF5
:1003B0009FEFDF91CF911F910F91089508958CBD0C
:1003C0009DBD08951F920F920FB60F9211242F9387
:1003D0008F939F93AF93BF93EF93FF939BB180E273
:1003E00089278BB98091B205811109C0E091B005D0
:1003F000F091B105E05DFB4FA0EBB5E008C0E091E6
:100400002E04F0912F04E255FD4FAEE2B4E080914E
:10041000AD02811112C08D919C911197803891404D
:10042000E0F421E020838D919C9111970196119623
:100430009C938E932093AD0210C080818F3320F463
:1004400080818F5F808309C081E080838D919C9142
:100450001197019611969C938E930000FF91EF9156
:10046000BF91AF919F918F912F910F900FBE0F90E1
:100470001F901895CF9361FF26C080910D0181FFD9
:1004800022C080FF14C08091120190911301DC0101
:10049000ED91FC910480F581E02D0995C82FCC23C6
:1004A00079F00E947116811104C0C150F8CF0E94EA
:1004B0007116813029F480910D018D7F80930D019B
:1004C00080E090E002C081E090E0CF910895CF936A
:1004D00080910D0181FD2AC0FA01982F92609093BE
:1004E0000D017093110160931001918190930E01A1
:1004F000908190930F0180FF14C080911201909120
:100500001301DC01ED91FC910480F581E02D09954A
:10051000C82FCC2341F00E947116892B21F4C150C1
:10052000F8CF0E94711681E090E002C080E090E078
:10053000CF9108950F931F93CF93DF93EC018C011C
:1005400001571F4FF8018081807809F458C0803826
:1005500089F165C06817790710F0805C9F4F861B92
:10056000970B8131910510F080E190E09B01280FFD
:10057000391F2034310520F080E490E0861B970B72
:10058000AE0147575F4FFA0191838083CE018D5BA7
:100590009F4F680F791F89819A81FC012081211169
:1005A00041C00E94670281309105F1F5F801808118
:1005B0008068808389819A81FC01208121112CC06F
:1005C00062E00E943A02009751F1F80120812F77F2
:1005D00020838130910541F5FE01EB57FF4F2081CB
:1005E0003181DE01A757BF4F8D919C91820F931FE0
:1005F0008034910510F08054910991838083FE012D
:10060000EB57FF4F6081718132968081918168172D
:10061000790709F09FCF03C08FEF9FEFD6CF80E01F
:1006200090E002C08FEF9FEFDF91CF911F910F916C
:1006300008958F929F92AF92BF92CF92DF92EF92E6
:10064000FF920F931F93CF93DF937C015B01EA012D
:100650000E949A02C034D10508F057C0F701EB5749
:10066000FF4F20813181670187E8C80ED11CF60158
:10067000808191812817390718F040E050E002C0CE
:1006800040E450E021503109281B390B240F351F5D
:100690002C173D07E8F197012D5B3F4F49019E0163
:1006A000280F391F21343105A0F4AE01B501880DA2
:1006B000991D0E944C23F60140815181C40FD51F22
:1006C000C034D10518F0C054D109F601D183C083DC
:1006D00016C000E410E0081B190BA801B501880D35
:1006E000991D0E944C23AE01401B510BF601518312
:1006F0004083B501600F711FC4010E944C23C701E4
:100700000E949A0281E090E005C08FEF9FEF02C047
:1007100080E090E0DF91CF911F910F91FF90EF90DB
:10072000DF90CF90BF90AF909F908F9008958F9261
:100730009F92AF92BF92EF92FF920F931F93CF932E
:10074000DF93EC018E8187FF1CC00E94270F8D84F0
:100750009E84AF84B888DC01CB0188199909AA0965
:10076000BB098F3F9F4FAF4FBF4758F410926F00A8
:100770001092AC028FEE97E00E94D9128E818F7793
:100780008E838E81E82FEF778E2F90E08930910550
:1007900008F0C5C0FC01EC5CFF4F0C942D23888150
:1007A0009981FC012089253008F0B9C020E030E0B3
:1007B0004EEB51E063E00E944C018E818F5F8E838F
:1007C00088819981FC012089253008F0A8C022E0A9
:1007D00030E0AE01495F5F4F69E00E944C018E81BD
:1007E0008F5F8E8388819981FC012089253008F0F4
:1007F00096C020E030E043EE51E063E00E944C01FF
:100800008E818F5F8E83E881F9818089853008F041
:1008100086C08E818F5F8E838FEE97E00E94B61226
:10082000882339F18FEE97E00E949913892B09F103
:100830009FB7F8948091B205811174C02091B005E2
:100840003091B105232B09F485C081E08093B20576
:1008500010922F0410922E041092AD020091B00558
:100860001091B10520E3E22E24E0F22E9FBF81110A
:1008700073C04091AA025091AB0260E070E089849D
:100880009A84AB84BC848E81481559056A057B0522
:1008900039F049875A876B877C878F5F8E8305C0C5
:1008A00087FD3DC08E5F8E8308C0E881F981808915
:1008B0008530A8F58E818150AECF88819981FC0169
:1008C0002089253060F520E030E04DEC51E063E018
:1008D0000E944C018E818F5F8E8388819981FC01FB
:1008E00020892530E0F422E030E0AE01475F5F4F21
:1008F00069E00E944C018E818F5F8E83888199818F
:10090000FC012089253058F420E030E043EE51E02E
:1009100063E00E944C011C8A81E090E033C080E0DB
:1009200090E030C020912E0430912F04232B91F0C1
:100930001092B2051092B1051092B0051092AD025E
:1009400000912E0410912F048EEAE82E82E0F82EFA
:1009500081E08CCF80E08ACFA801B7018FEE97E0CD
:100960000E942215892B09F084CF64EC71E086E4A3
:1009700097E00E94F00F63EE71E086E497E00E943A
:10098000F00F77CFDF91CF911F910F91FF90EF90F4
:10099000BF90AF909F908F900895CF93DF93EC011D
:1009A0008E818130A1F018F0823011F134C088813D
:1009B0009981FC012089253070F549855A8520E010
:1009C00030E063E00E944C018E818F5F8E838881CE
:1009D0009981FC0120892530F0F421E030E0AE015E
:1009E000495F5F4F60E00E944C018E818F5F8E8374
:1009F00088819981FC012089253068F44B855C85CC
:100A00004115510511F443EE51E020E030E063E080
:100A10000E944C011C8A81E090E0DF91CF91089503
:100A20002F923F924F925F926F927F928F929F92FE
:100A3000AF92BF92CF92DF92EF92FF920F931F93EC
:100A4000CF93DF93CDB7DEB762970FB6F894DEBFD2
:100A50000FBECDBF8C017A0169011A8A198A809173
:100A60001B0190911C01A0911D01B0911E018F836B
:100A70009887A987BA87D80154968C915497882370
:100A8000F1F0813009F468C054961C9254978D910E
:100A90009C91FC012089253030F420E030E04CEDC1
:100AA00051E063E056C081E0D80154968C9354978E
:100AB0008CED91E018969C938E9317977FC0D80188
:100AC000ED91FC918089853008F046C09E012F5E33
:100AD0003F4FAE01415F5F4FB601C7010E941D014C
:100AE000892B79F149895A89AF84B888BA016A1982
:100AF0007B09DE011796912CAE0CBF1C8D919D9148
:100B0000812C282D30E02617370750F4FC01E20F26
:100B1000F31F7080F501E20FF31FE0817E1621F0D4
:100B20006217730751F402C08394EBCFFC01E60F08
:100B3000F71F8081882309F444C09394E2E09E1259
:100B4000DDCF20E030E046EE51E063E0D8018D914A
:100B50009C910E944C0132C020E031C0E40EF51E91
:100B60001C861B86B601641B750B9E01255F3F4FDB
:100B7000AE01435F5F4FC7010E941D01892B89F5BC
:100B800082E0D80154968C93549716961C9216972F
:100B90008AE292E01A969C938E93199781E090E0F6
:100BA00018969C938E9317971C961C921E921B97D7
:100BB000C8010E94CD04009709F0C6C021E090E072
:100BC0006CC1F1E09F1651F220E030E043E152E0C9
:100BD00063E0F801808191810E944C0181E090E006
:100BE000B3C08D859E85EB85FC851F01281A390AC7
:100BF000412C512C3201B12CE0E0C12CE80EF91E41
:100C00008C2D90E08215930508F093C0D701A80FB2
:100C1000B91FFC91E13089F028F0EA30F9F0E031B9
:100C2000A9F185C0FD3209F47BC0F03309F47CC022
:100C30008FEC8F0F893048F0A3CFF83709F476C0D6
:100C400080ED8F0F8A3008F09BCF4F2E512CD201B0
:100C5000D0972D01BB0F6608770864C080ED8F0F19
:100C60008A3008F08DCFAAE0B0E0A30192010E9483
:100C7000C1228F2E912CD401D0972D01BB0F660875
:100C80007708460E571E681E791E51C080ED8F0FE3
:100C90008A30A0F4B301A20124E0440F551F661F5F
:100CA000771F2A95D1F76F2E712CD301D097CD01E4
:100CB000BB0FAA0BBB0B2C013D012DC08FEB8F0F7F
:100CC0008630A0F4B301A20194E0440F551F661FC3
:100CD000771F9A95D1F7AF2FB0E02D01F7E34F1AA8
:100CE0005108052C000C6608770815C08FE98F0F96
:100CF000863008F045CF84E0440C551C661C771CF8
:100D00008A95D1F78F2F90E0AC0147555109052EF8
:100D1000000C660B770B440E551E661E771E07C02F
:100D2000BB24B394EAE003C0E1E001C0E0E1C39476
:100D300067CFBB2059F07094609450944094411C4C
:100D4000511C611C711C02C0282FA7C0141415046B
:100D5000160417045CF082E0D80154968C935497E3
:100D600016961C92169782E492E014CF0E94270FE9
:100D70006B017C011092B1051092B00510922F0406
:100D800010922E041092B2051092AD0210926F00D4
:100D900080E8809380008AE0809381008FEF9FE756
:100DA00090938900809388001092850010928400AF
:100DB00080916F00826080936F001092AB0210925E
:100DC000AA0281E08093AC0280910F07882339F05A
:100DD00080910E07843341F08733A9F022C00E942E
:100DE000A1098823F1F0F4CFCE0101960E948C1B5B
:100DF00089819A810E94DF0185E390E00E94BA1404
:100E000085FF28C00EC0CE0101960E948C1B8981EF
:100E10009A810E94DF018EE290E00E94BA1480FF66
:100E200019C086EB91E09A838983809100089091A4
:100E30000108A0910208B09103088B839C83AD83C5
:100E4000BE8347EF5AE4BE016F5F7F4F8FEE97E09E
:100E50000E94FD1383E0F801848B80E8868350862E
:100E600047821186128613861486A301920160E4DC
:100E700072E48FE090E00E94FD22DC01CB018C0D3A
:100E80009D1DAE1DBF1D85879687A787B08B138AD2
:100E9000128AC8010E9497038ECE822F62960FB6E7
:100EA000F894DEBF0FBECDBFDF91CF911F910F91A0
:100EB000FF90EF90DF90CF90BF90AF909F908F907A
:100EC0007F906F905F904F903F902F900895FC011E
:100ED000918D228D892F90E0805C9F4F821B91091C
:100EE0008F739927089580E090E0892B29F00E9464
:100EF000AE0E81110C9400000895FC0120812EBDDE
:100F00009B012150310941F051810DB407FEFDCF05
:100F10004EB55EBD4193F5CF61507109FC01E60FFE
:100F2000F71F0DB407FEFDCF8EB580830895E091C5
:100F3000B505F091B60590818091B405892B808329
:100F40000895E091B505F091B60590818091B405C2
:100F500080958923808308958EBD00000DB407FE1F
:100F6000FDCF8EB5089520910E0790E0233311F444
:100F70000C9601C04896982F990F990F990F80E011
:100F8000089580E090E00C94BA14FF920F931F93A1
:100F9000CF93DF9300D0CDB7DEB7F82E22E030E05C
:100FA000AE014F5F5F4F66E270E00E94B5150981A8
:100FB0001A8110270127102722E030E0AE014F5F91
:100FC0005F4F66E270E08F2D0E94B51589819A818E
:100FD0009827892798270817190711F08C01ECCF5B
:100FE000C8010F900F90DF91CF911F910F91FF904B
:100FF0000895FC01848DDF01A80FB11DA35ABF4FD6
:101000002C91848D90E001968F739927848FA68907
:10101000B7892C93A089B1898C91837080648C935B
:10102000938D848D981306C00288F389E02D80810A
:101030008F7D80830895CF93C82F462F61E070E0A5
:101040000E949C1461E070E08C2F0E94CB148111EF
:10105000F9CFCF910895AF92BF92CF92DF92EF92E6
:10106000FF920F931F93CF93DF9300D000D0CDB7A3
:10107000DEB78C016B017A0180910E078333F1F4A6
:101080005B016801C40ED51E0C151D0509F460C076
:101090000E94A1078FE00E94AC07812F0E94AC073D
:1010A000802F0E94AC070F5F1F4F80E00E94AC07AB
:1010B000F50181935F010E949707E6CF8433F1F435
:1010C0000E94A10719830A838F2D8F778B83EC826F
:1010D00064E070E0CE0101960E947D07A70160E008
:1010E00070E0C6010E945523E114F10421F0B7011C
:1010F000C6010E947D070E9497072AC00E94A1078F
:101100000F3F110509F020F419820A831B821DC0CC
:1011100017FD0BC019820A8333E0169507953A959F
:10112000E1F7007E08600B8310C0C80126E09695A9
:1011300087952A95E1F719830A83807E0115104C63
:1011400010F4806101C088618B8363E070E0C2CFDE
:10115000C7010F900F900F900F90DF91CF911F91CB
:101160000F91FF90EF90DF90CF90BF90AF900895D8
:10117000AF92BF92CF92DF92EF92FF920F931F93A5
:10118000CF93DF93CDB7DEB728970FB6F894DEBFC5
:101190000FBECDBF8C017B016A0180910E078333A6
:1011A000E1F45801A40EB51E0A151B0509F48BC005
:1011B0000E94A10780EF0E94AC07812F0E94AC071C
:1011C000802F0E94AC070F5F1F4FF70181917F01B5
:1011D0000E94AC070E949707E7CF843321F50E9455
:1011E000A10719830A838D2D80688B83CC8264E0EC
:1011F00070E0CE0101960E947D0787010C0D1D1D38
:10120000E016F10669F0F70181917F010E94AC07B9
:10121000F7CFB6016D5F7F4FCE0101960E947D072B
:101220000E94970750C00E94A1070F3F110509F0C7
:1012300020F419820A8384E01CC017FD0BC01982B8
:101240000A8333E0169507953A95E1F7007E0C6026
:101250000B8310C0C80126E0969587952A95E1F783
:1012600019830A83807E0115104C10F4846101C03B
:101270008C618B8326E0C216D10498F420E0822F83
:1012800090E08C159D0528F6E4E0F0E0EC0FFD1FE2
:10129000E80FF91FD701A80FB91F8C9180832F5F2A
:1012A000EECF63E070E0CE0101960E947D078701DA
:1012B0000C0D1D1DF70181917F010E94AC07E01606
:1012C000F106C1F7ADCFC60128960FB6F894DEBF80
:1012D0000FBECDBFDF91CF911F910F91FF90EF9087
:1012E000DF90CF90BF90AF900895CF93DF931F9280
:1012F000CDB7DEB7898341E050E0BE016F5F7F4F1D
:1013000080E090E00E94B8080F90DF91CF9108959F
:10131000CF93DF9380E80E947509C4E1D0E00E947A
:10132000C107882351F061E070E080E090E00E9406
:10133000F5182197A1F780E001C081E0DF91CF91FE
:1013400008951F93CF93DF9300D01F92CDB7DEB7E0
:1013500060E372E080E090E00E94F5181FB7F89417
:101360008091B705811126C0E8E9F0E08491ECEAAC
:10137000F0E09491E82FF0E0EE0FFF1FE658FF4FEA
:10138000A591B491EC91E92319F48AE00E94921B93
:1013900061E08AE00E94B9188CB580618CBD8CB583
:1013A00080648CBD61E08DE00E94B91861E08BE043
:1013B0000E94B9188091B7058F5F8093B7051FBF52
:1013C00080910401282F30E0F901E257FF4FE491AA
:1013D000F0E0EE0FFF1FEC57FF4F459154915093F3
:1013E000B6054093B505F901EE55FF4FE491E09342
:1013F000B40561E00E94B9180E949707CE010196DA
:101400000E948C1B89819A810E94DF0184E3809372
:101410000E070E9488098823F1F188E00E9475096F
:101420000E94C1078830B9F580E10E9475090E94C9
:10143000C107803181F580E00E9475090E94C107D3
:10144000811129C08FE190E00E94BA14833019F510
:1014500080E48093B30510E042E06EE170E0812FFC
:101460000E949C1442E06FE170E0812F0E949C1466
:101470001F5F143089F740E06EE170E0812F0E9419
:101480009C1440E06FE170E0812F0E949C141F5F6C
:10149000183089F725C087E380930E070E948809DA
:1014A000882321F188E00E9475090E94C1078830D5
:1014B000E9F480E10E9475090E94C107182F80316C
:1014C000A9F480E00E9475090E94C10781110EC035
:1014D00089E390E00E94BA14843041F41093B3057C
:1014E0000E94DE0181E080930F073AC083E380937E
:1014F0000E070E948809882371F180E10E94750916
:101500000E94C107803139F582E10E9475090E946D
:10151000C107823101F580E00E9475090E94C10770
:10152000811119C084E08093B30515E51B8341E068
:1015300050E0BE016D5F7F4F8BE190E00E94B808E4
:10154000198341E050E0BE016F5F7F4F8AE190E078
:101550000E94B808C5CF10920E070E94DE0180E0FD
:101560000F900F900F90DF91CF911F9108957F9270
:101570008F929F92AF92BF92CF92DF92EF92FF92A3
:101580000F931F93CF93DF9300D0CDB7DEB7782EA4
:101590008B014A01590122E030E0AE014F5F5F4FFD
:1015A00064E270E00E94B515E980FA80FE24EF2421
:1015B000FE24E00EF11E9701377040910E07072DB3
:1015C00010E0C801433311F4089601C04096982FEB
:1015D0008827990F990F990F820F931F473319F49A
:1015E000A501B40120C0A9014A0D5B1D413058403E
:1015F000B8F360E078E06B01C21AD30AA601B40127
:101600000E94B808A5014C195D09B4016C0D7D1D3F
:1016100080910E07833339F5085F1F4F902F990F84
:10162000990F990F80E00E94B808EA0CFB1CF98220
:10163000EA8222E030E0AE014F5F5F4F64E270E08B
:10164000872D0E94A2130F900F90DF91CF911F91D1
:101650000F91FF90EF90DF90CF90BF90AF909F9051
:101660008F907F900895005F1F4FD8CFEF92FF9229
:101670001F93CF93DF9300D0CDB7DEB7182F22E0B2
:1016800030E0AE014F5F5F4F60E270E00E94B51541
:10169000E980FA80FE24EF24FE2422E030E0AE014F
:1016A0004F5F5F4F60E270E0812F0E94B515898126
:1016B0009A81982789279827E816F90611F07C0166
:1016C000ECCF87E0189FF0011124E651F94FF58225
:1016D000E482C7010F900F90DF91CF911F91FF908F
:1016E000EF900895FF920F931F93CF93DF9300D055
:1016F000CDB7DEB7F82ECE0101960E948C1B8981F2
:101700009A810E94DF018F2D0E94360B8C0163E0CD
:1017100070E08F2D0E94CB14F82E0E94DE0187E12D
:10172000F81631F08CE1F81619F080E090E001C075
:10173000C8010F900F90DF91CF911F910F91FF90F3
:1017400008951F93CF93DF9300D0CDB7DEB7182F46
:10175000CE0101960E948C1B89819A810E94DF0133
:10176000812F0E94B30727E0129FF0011124E65158
:10177000F94F22813381377041E050E0BE016F5F45
:101780007F4F820F931F0E942B080E94DE018981E8
:101790000F900F90DF91CF911F910895EF92FF92DC
:1017A0000F931F93CF93DF9300D0CDB7DEB7482FB1
:1017B00087E0489F90011124F901E651F94F7F011C
:1017C000808191810097B9F4142FCE0101960E9477
:1017D0008C1B89819A810E94DF01812F0E94C5079D
:1017E0008C010E94DE01F70186819801281B3109D6
:1017F000C901318320830F900F90DF91CF911F910A
:101800000F91FF90EF9008954F925F927F928F9289
:101810009F92AF92BF92CF92DF92EF92FF920F937F
:101820001F93CF93DF9300D0CDB7DEB7782E6B0137
:101830004A01A82EB12C27E0829FC0011124AC01DF
:101840004651594F7A01FA0100811181CE0101966A
:101850000E948C1B89819A810E94DF01081519055D
:1018600054F4872D0E94C507F70126818C01021BC5
:1018700011091183008301151105A9F463E070E0DB
:10188000872D0E94CB14843109F480C0882309F489
:101890007DC001E010E08C3111F400E010E0119502
:1018A0000195110973C0801691060CF4840187E03C
:1018B0008A9DF0018B9DF00D1124E651F94FE280D5
:1018C000F380C114D10459F12701F7E05F22872D7D
:1018D0000E94B307840D951D20910E07273319F43C
:1018E000A801B6011AC09801240D351D21303840D9
:1018F000B8F320E038E0490184189508A401B60146
:101900000E942B082601480C591C6801C818D908E8
:10191000872D0E94B307A601B2010E942B08E00E9A
:10192000F11E87E08A9DF0018B9DF00D1124E65198
:10193000F94FF382E28280819181801B910B918328
:1019400080832681A801420F511D4A3F510510F4A2
:10195000892BD9F487E08A9DF0018B9DF00D11242D
:10196000E651F94F1682F982EA8222E030E0AE01B8
:101970004F5F5F4F68E270E0872D0E94A21360E422
:1019800070E0872D0E941B0801C046830E94DE0183
:10199000C8010F900F90DF91CF911F910F91FF9091
:1019A000EF90DF90CF90BF90AF909F908F907F90FF
:1019B0005F904F9008951F93CF93DF9300D0CDB7E2
:1019C000DEB7182FCE0101960E948C1B89819A8167
:1019D0000E94DF0168E070E0812F0E941B080E94D6
:1019E000DE010F900F90DF91CF911F9108951F930B
:1019F000CF93DF9300D0CDB7DEB7182FCE0101967D
:101A00000E948C1B89819A810E94DF0160E170E055
:101A1000812F0E941B080E94DE010F900F90DF9122
:101A2000CF911F9108951F93CF93DF9300D0CDB72F
:101A3000DEB7182FCE0101960E948C1B89819A81F6
:101A40000E94DF0163E070E0812F0E94CB14182F09
:101A50000E94DE01812F0F900F90DF91CF911F9197
:101A60000895CF93DF9300D0CDB7DEB779836A8333
:101A700022E030E0AE014F5F5F4F60E170E00E9416
:101A8000A2130F900F90DF91CF910895CF93DF9322
:101A900000D0CDB7DEB779836A8322E030E0AE01B3
:101AA0004F5F5F4F64E070E00E94A2130F900F90B1
:101AB000DF91CF910895AF92BF92CF92DF92EF92D4
:101AC000FF920F931F93CF93DF9300D000D000D0ED
:101AD000CDB7DEB7082F6B01CE0101960E948C1B9B
:101AE00089819A810E94DF019E012F5F3F4F79011A
:101AF000590110E063E070E0812F0E94CB14F501E2
:101B000081935F018823D1F01F5F143099F710E0B3
:101B1000F70181917F018D3161F0883151F08A5157
:101B2000823038F01F5F143099F70E94DE0184E0A4
:101B30005CC060E170E0812F0E941B08E12EF12C57
:101B400083EE93E00197F1F7402F60E070E0812F82
:101B50000E949C144FEF62E070E0812F0E949C1461
:101B6000C114D10411F0B60113C080910501909108
:101B7000060101968115F0EC9F0710F480E090ECCF
:101B80009093060180930501609105017091060113
:101B9000812F0E94460D61E070E0812F0E941B089A
:101BA00027E02E9DC0012F9D900D11249C012651F0
:101BB000394F7901F9011182108222E030E0AE0143
:101BC0004B5F5F4F68E270E0812F0E94B5158D81F9
:101BD0009E81982789279827F7019383828316820D
:101BE000158214820E94DE01812F26960FB6F8948A
:101BF000DEBF0FBECDBFDF91CF911F910F91FF9040
:101C0000EF90DF90CF90BF90AF9008950895CF925E
:101C1000DF92EF92FF920F931F93CF93DF936C01AC
:101C20007A018B01C0E0D0E0CE15DF0581F0D8014C
:101C30006D918D01D601ED91FC910190F081E02D27
:101C4000C6010995892B11F02196EECF7E01C701BF
:101C5000DF91CF911F910F91FF90EF90DF90CF9088
:101C60000895FC01538D448D252F30E0842F90E0A2
:101C7000821B930B541710F0CF9608950197089587
:101C8000FC01918D828D981761F0828DDF01A80F84
:101C9000B11D5D968C91928D9F5F9F73928F90E0A6
:101CA00008958FEF9FEF0895FC01918D828D981715
:101CB00031F0828DE80FF11D858D90E008958FEF52
:101CC0009FEF08950E9447238F929F92AF92BF92F9
:101CD000CF92DF92EF92FF920F931F93CF93DF93F8
:101CE0007C01EB016C0182E0C80ED11C4701E5E0EC
:101CF0008E0E911C00E010E0F60141916F0150E062
:101D000060E070E02AE0CE010E9470185C01E8817A
:101D1000F9810190F081E02D6EE2CE0109958A0DE6
:101D20009B1D080F191F8C149D0431F7F701458185
:101D300050E060E070E02AE0CE010E947018800F51
:101D4000911FDF91CF911F910F91FF90EF90DF9046
:101D5000CF90BF90AF909F908F90089586E497E0CA
:101D60000E94670721E0892B09F420E0822F089563
:101D7000EF92FF920F931F93CF93DF93EC0181E0DB
:101D8000888F9B8D8C8D981305C0E889F989808197
:101D900085FD26C0F62E0B8D10E00F5F1F4F0F73D1
:101DA0001127E02E8C8DE8120CC00FB607FCFACF7D
:101DB000E889F989808185FFF5CFCE010E94F90776
:101DC000F1CF8B8DFE01E80FF11DE35AFF4FF0823A
:101DD0009FB7F8940B8FEA89FB89808180620AC0E3
:101DE0009FB7F894EE89FF896083E889F98980813B
:101DF0008370806480839FBF81E090E0DF91CF910A
:101E00001F910F91FF90EF900895CF93DF93EC0116
:101E1000888D8823C9F0EA89FB89808185FD05C00A
:101E2000A889B9898C9186FD0FC00FB607FCF5CF44
:101E3000808185FFF2CFA889B9898C9185FFEDCF8C
:101E4000CE010E94F907E7CFDF91CF9108953FB708
:101E5000F8948091E6069091E706A091E806B0918B
:101E6000E90626B5A89B05C02F3F19F00196A11DD4
:101E7000B11D3FBFBA2FA92F982F8827820F911D20
:101E8000A11DB11DBC01CD0142E0660F771F881F67
:101E9000991F4A95D1F708952FB7F8946091E206FB
:101EA0007091E3068091E4069091E5062FBF0895B6
:101EB0001F920F920FB60F9211242F933F938F937F
:101EC0009F93AF93BF938091E2069091E306A09118
:101ED000E406B091E5063091E10623E0230F2D37AB
:101EE00020F40196A11DB11D05C026E8230F02961E
:101EF000A11DB11D2093E1068093E2069093E306B5
:101F0000A093E406B093E5068091E6069091E7067B
:101F1000A091E806B091E9060196A11DB11D80933C
:101F2000E6069093E706A093E806B093E906BF9112
:101F3000AF919F918F913F912F910F900FBE0F9076
:101F40001F9018951F920F920FB60F9211242F9386
:101F50003F934F935F936F937F938F939F93AF9331
:101F6000BF93EF93FF93E0910201F0910301099574
:101F7000FF91EF91BF91AF919F918F917F916F9161
:101F80005F914F913F912F910F900FBE0F901F9037
:101F900018951F920F920FB60F9211242F933F9313
:101FA0004F935F936F937F938F939F93AF93BF9361
:101FB000EF93FF93E0910001F09101010995FF91EA
:101FC000EF91BF91AF919F918F917F916F915F91B1
:101FD0004F913F912F910F900FBE0F901F9018952A
:101FE0006115710579F0FB0101900020E9F7319747
:101FF000AF01461B570BDC01ED91FC910280F38190
:10200000E02D099480E090E008951F920F920FB6A2
:102010000F9211242F933F934F935F936F937F936E
:102020008F939F93AF93BF93EF93FF9386E497E0D3
:102030000E94F907FF91EF91BF91AF919F918F910E
:102040007F916F915F914F913F912F910F900FBEB4
:102050000F901F9018951F920F920FB60F92112498
:102060002F938F939F93EF93FF93E0915607F091F7
:1020700057078081E0915C07F0915D0782FD12C0F7
:10208000908180915F078F5F8F7320916007821727
:1020900051F0E0915F07F0E0EA5BF84F958F809395
:1020A0005F0701C08081FF91EF919F918F912F91E8
:1020B0000F900FBE0F901F9018950895CF93DF9348
:1020C0001F92CDB7DEB76983DC01ED91FC910280F0
:1020D000F381E02D41E050E0BE016F5F7F4F099535
:1020E0000F90DF91CF910895FC01818D928D08951D
:1020F000FC019485FB018485981303C081E0943032
:1021000008F080E00895CF93DF931F92CDB7DEB73C
:102110006983DC01ED91FC910280F381E02D41E0C7
:1021200050E0BE016F5F7F4F09950F90DF91CF9117
:102130000895CF92DF92EF92FF920F931F93CF9368
:10214000DF9300D000D000D0CDB7DEB78C016B019B
:102150007A01FC01808D843010F40E94F70C86EB2C
:1021600091E09A838983F60182819381A481B5816C
:102170008B839C83AD83BE83B701CE0101960E9401
:102180009117F801808F843030F4F586E486128E42
:10219000118E81E001C080E026960FB6F894DEBF74
:1021A0000FBECDBFDF91CF911F910F91FF90EF90A8
:1021B000DF90CF900895CF93DF93FC01808D843022
:1021C00028F4EF010E94F70C84E0888FDF91CF9113
:1021D0000895FC01808D843040F4218D328D232BB5
:1021E00021F00E94A10B90E008958FEF9FEF0895DA
:1021F000CF93DF93FC012485243018F08FEF9FEFFD
:102200000EC0EC010190F081E02D0084F185E02DFD
:102210000995892B99F38C850E94A10B90E0DF91A1
:10222000CF910895CF93DF93FC01218D328D21153D
:10223000310519F48FEF9FEF11C0EC0142175307DE
:1022400008F0A901888D0E94040C1816190694F74D
:10225000298D3A8D281B390B3A8F298FDF91CF9129
:1022600008950F931F93CF93DF931F92CDB7DEB7DF
:10227000FC01218D328D232B61F08C0141E050E077
:10228000BE016F5F7F4F808D0E94040C18161906E7
:102290001CF08FEF9FEF08C0F801818D928D0197A0
:1022A000928F818F898190E00F90DF91CF911F9164
:1022B0000F910895CF93DF931F92CDB7DEB741E022
:1022C00050E0BE016F5F7F4FFC0184850E94040CCB
:1022D000181619061CF4898190E002C08FEF9FEF59
:1022E0000F90DF91CF910895FC018485843010F424
:1022F0000C94040C80E090E00895FC018485843007
:1023000010F40C94CE0B80E090E008950F931F938F
:10231000CF93DF93CDB7DEB728970FB6F894DEBF23
:102320000FBECDBF8C01D80159964D915C915A9743
:102330004115510551F0ED91FC91048CF58DE02D86
:1023400060E070E0C8010995EECFF801808D0E9431
:10235000CE0B892B51F148E050E0BE016F5F7F4FFB
:10236000D80158968C910E94040C18161906FCF49A
:10237000D801509684E0FE01319601900D928A9525
:10238000E1F78D8190E0982F88272E81820F911D93
:10239000F801958B848B8F8190E0982F8827288572
:1023A000820F911D928F818F02C080E090E028966D
:1023B0000FB6F894DEBF0FBECDBFDF91CF911F9156
:1023C0000F9108957F928F929F92AF92BF92CF927A
:1023D000DF92EF92FF920F931F93CF93DF9300D082
:1023E000CDB7DEB77C014B01742EC52EFC01A6884B
:1023F000B788D08CCE0101960E948C1B89819A816E
:102400000E94DF018D2D0E94360B072D1C2D801799
:10241000910708F48C019801A401B5018D2D0E944B
:10242000B70A0E94DE01F70186899789800F911F04
:10243000978B868BC8010F900F90DF91CF911F91E2
:102440000F91FF90EF90DF90CF90BF90AF909F9053
:102450008F907F900895AF92BF92CF92DF92EF92CC
:10246000FF920F931F93CF93DF93CDB7DEB7AF9754
:102470000FB6F894DEBF0FBECDBF8C015B016A01C1
:10248000CE0101960E94711786EBE82E81E0F82EAE
:10249000FBA6EAA61CA61DA61EA61FA68091EB07FA
:1024A0009091EC07A091ED07B091EE078EA39FA34A
:1024B000A8A7B9A78B839C83AD83BE8318861F8290
:1024C000AE01465D5F4FB501CE0101960E942F1906
:1024D00081309105B1F4D801ED91FC910488F58922
:1024E000E02DFDA2ECA28CA59DA5AEA5BFA58EA357
:1024F0009FA3A8A7B9A7A601BE016C5D7F4FC80125
:102500000995AF960FB6F894DEBF0FBECDBFDF9131
:10251000CF911F910F91FF90EF90DF90CF90BF90E0
:10252000AF9008950F931F93CF93DF93EC018B012E
:10253000888D843010F40E94F70C80910E07882358
:1025400029F0B80182E00E945B0D01C084E0888F11
:10255000843030F41D870C871A8E198E81E001C0FB
:1025600080E0DF91CF911F910F910895CF93DF937A
:10257000EC018C858430C8F40E94130D843181F005
:10258000882371F0883161F08C3161F4E881F98140
:102590000084F185E02DCE01099521E0892B19F405
:1025A00020E001C021E0822F01C080E0DF91CF91C7
:1025B0000895CF92DF92EF92FF92CF93DF93EC01D9
:1025C0008C85843038F50E94DB0C0E944C0F6B0127
:1025D0007C018C850E94130D8823D1F061E070E0AE
:1025E00080E090E00E94F5180E944C0FAB01BC0106
:1025F0004C195D096E097F098D859E85A0E0B0E0CC
:10260000481759076A077B0720F38C850E94F70C4F
:1026100084E08C87DF91CF91FF90EF90DF90CF9097
:102620000895CF92DF92EF92FF920F931F93CF9373
:10263000DF93CDB7DEB7AF970FB6F894DEBF0FBE0E
:10264000CDBF8C016B017A01CE0101960E947117FA
:1026500086EB91E09BA78AA71CA61DA61EA61FA617
:10266000D8011C968C91843060F40E94130D88234D
:1026700021F0F80184850E94DB0C84E0D8011C96CF
:102680008C938091EB079091EC07A091ED07B091AE
:10269000EE078EA39FA3A8A7B9A78B839C83AD83C6
:1026A000BE8318861F82AE01465D5F4FB601CE0124
:1026B00001960E942F190097C1F0D801ED91FC916D
:1026C0000684F785E02D86EB91E09DA38CA38CA575
:1026D0009DA5AEA5BFA58EA39FA3A8A7B9A7A70137
:1026E000BE016C5D7F4FC8010995AF960FB6F89497
:1026F000DEBF0FBECDBFDF91CF911F910F91FF9035
:10270000EF90DF90CF900895CF93DF93EC018C850D
:10271000843060F40E94130D873111F08C3131F454
:102720008C850E94720B8115984088F3DF91CF91C0
:102730000895FC018485843010F40C94720B80E0C1
:1027400090E00895DA019091B305E92FF0E0FE2FB3
:10275000EE27E60FF71F90E0982F8827A901BD010B
:102760008E0F9F1F0C94B808DF92EF92FF920F9389
:102770001F93CF93DF9300D0CDB7DEB7FB01DC0111
:1027800057961C921E9256972281211109C02381CF
:10279000211106C02481211103C02581222309F1C2
:1027A00041155105F1F07A018F01FC01D08CCE0169
:1027B00001960E948C1B89819A810E94DF01A801E9
:1027C0004E5F5F4F24E030E06CE070E08D2D0E94A2
:1027D000A213B7018D2D0E94310D0E94DE0181E010
:1027E00001C080E090E00F900F90DF91CF911F919A
:1027F0000F91FF90EF90DF900895AF92BF92CF922C
:10280000DF92EF92FF920F931F93CF93DF9300D04D
:10281000CDB7DEB78C016B015A01FC018485843091
:1028200058F40E94130D882321F0F80184850E943A
:10283000DB0C84E0F8018487F60182819381A48116
:10284000B5810097A105B10509F464C08F3F9F4F82
:10285000AF4FBF4F09F45EC080910E07882339F057
:1028600060E070E081E20E945B0DF82E02C084E01F
:10287000F82EF801F486F3E0FF1508F44BC0CE0102
:1028800001960E948C1B89819A810E94DF01A6011A
:102890004E5F5F4F24E030E06CE070E08F2D0E94CF
:1028A000A213B5018F2D0E94310D64E070E08F2DD1
:1028B0000E941B080E94DE010E944C0F6B017C01EC
:1028C000F80184850E94130D873139F18C3129F18B
:1028D000882301F10E944C0FAB01BC014C195D092A
:1028E0006E097F09F80185859685A0E0B0E0841720
:1028F0009507A607B70738F061E070E080E090E048
:102900000E94F518DDCFF80184850E94F70C84E061
:10291000F801848780E090E002C081E090E00F90B1
:102920000F90DF91CF911F910F91FF90EF90DF906B
:10293000CF90BF90AF900895CF93DF931F92CDB704
:10294000DEB79091B305292F30E0322F2227260FD2
:10295000371F90E0982F8827498341E050E0BE015F
:102960006F5F7F4F820F931F0E94B8080F90DF9117
:10297000CF910895CF93DF931F92CDB7DEB741E09B
:1029800050E0BE016F5F7F4F0E942B0889810F903E
:10299000DF91CF9108959091B305292F30E0322F28
:1029A0002227260F371F90E0982F8827820F931F2A
:1029B0000C94BA141F93CF93DF9300D0CDB7DEB73A
:1029C000FC01108DCE0101960E948C1B89819A8199
:1029D0000E94DF0160E270E0812F0E941B0862E02C
:1029E00070E0812F0E94CB1484FD1CC062E070E077
:1029F000812F0E94CB1483FF0AC048E162E070E09F
:102A0000812F0E949C140E94DE0180E014C00E946D
:102A1000DE01CE0101960E948C1B89819A810E9461
:102A2000DF01DDCF40E162E070E0812F0E949C1465
:102A30000E94DE0181E090E00F900F90DF91CF9136
:102A40001F9108956F927F928F929F92AF92BF9243
:102A5000CF92DF92EF92FF920F931F93CF93DF936A
:102A600000D0CDB7DEB7FC011485143008F068C083
:102A70006A014130F8E05F0718F0C12C28E0D22E3F
:102A80007A013B015C01CE0101960E948C1B898179
:102A90009A810E94DF01812F0E94360B4C0163E076
:102AA00070E0812F0E94CB14082F0E94DE010731B5
:102AB00011F00C3121F48C149D0428F302C0C12CB8
:102AC000D12CCE0101960E948C1B89819A810E9493
:102AD000DF019601A30160E070E0812F0E94B70A38
:102AE00060E270E0812F0E941B0862E070E0812F9D
:102AF0000E94CB1484FD15C063E070E0812F0E941A
:102B0000CB14811103C00E94DE0115C00E94DE01BA
:102B1000CE0101960E948C1B89819A810E94DF015F
:102B2000E4CF40E162E070E0812F0E949C140E949B
:102B3000DE01CD2841F481E090E0F50193838283AA
:102B400080E090E001C0C7010F900F90DF91CF911E
:102B50001F910F91FF90EF90DF90CF90BF90AF90BB
:102B60009F908F907F906F900895DA019091B305B8
:102B7000E92FF0E0FE2FEE27E60FF71F90E0982FE9
:102B80008827A901BD018E0F9F1F0C942B080F935E
:102B90001F93CF93DF9300D0CDB7DEB7FC01248520
:102BA0002430E0F48C01CE0101960E948C1B8981B7
:102BB0009A810E94DF0122E030E0AE014F5F5F4F5B
:102BC00060E170E0F80184850E94B51509811A81E1
:102BD0001027012710270E94DE0102C000E010E04C
:102BE000C8010F900F90DF91CF911F910F91089521
:102BF000EF92FF920F931F93CF93DF9300D000D0FB
:102C0000CDB7DEB78C017B01FB018485843050F0A9
:102C100086EB91E0F8019183808312821382148203
:102C2000158222C0CE0101960E948C1B89819A8157
:102C30000E94DF0124E030E0AE014F5F5F4F6CE0A7
:102C400070E0F70184850E94B5150E94DE0186EBD5
:102C500091E0F8019183808389819A81AB81BC8165
:102C600082839383A483B583C8010F900F900F9044
:102C70000F90DF91CF911F910F91FF90EF900895EA
:102C80000F931F93CF93DF9300D0CDB7DEB7FC0136
:102C900024852430E0F48C01CE0101960E948C1B27
:102CA00089819A810E94DF0122E030E0AE014F5F0E
:102CB0005F4F64E070E0F80184850E94B5150981DA
:102CC0001A811027012710270E94DE0102C000E0B0
:102CD00010E0C8010F900F90DF91CF911F910F91DD
:102CE0000895CF93DF9380910F01811107C08091E8
:102CF0000E01811103C081E090E039C08091120182
:102D000090911301A0911001B0911101EC01E881A3
:102D1000F9810190F081E02D6C910995892B11F1D9
:102D2000809110019091110101969093110180936F
:102D3000100180910F01811109C08FEF80930F0165
:102D400080910E01815080930E0103C081508093C9
:102D50000F0180910F01811108C080910E01811136
:102D600004C0C9CF8FEF9FEF02C080E090E0DF91F9
:102D7000CF910895CF92DF92EF92FF92CF93DF939E
:102D8000CDB7DEB7C454D1090FB6F894DEBF0FBE7D
:102D9000CDBFFC01428153816481758123964CAF84
:102DA0005DAF6EAF7FAF239781E023968FAF239700
:102DB0002396CCACDDACEEACFFAC2397CBAADCAA5F
:102DC000EDAAFEAA4DA75EA76FA778AB88ABCDA4EE
:102DD000DEA4EFA4F8A8CFA2D8A6E9A6FAA68EABE7
:102DE000CBA8DCA8EDA8FEA8C9A2DAA2EBA2FCA29F
:102DF00026EB31E03C8B2B8B9FEF9D8B9E8B9F8B2B
:102E0000188E3E872D878AA7CFA0D8A4E9A4FAA45C
:102E1000CF86D88AE98AFA8A8CA389A19AA1ABA124
:102E2000BCA189879A87AB87BC873A8329834B8368
:102E30005C836D837E8380910F07882309F43FC0F4
:102E4000CE018D5B9F4F0E948C1B25968EAD9FAD52
:102E500025970E94DF0146E050E067E071E089E0DD
:102E600090E00E94B80844E050E0BE016D5F7F4FE3
:102E70008FE090E00E94B80844E050E0BE01615F3E
:102E80007F4F81E090E00E94B80844E050E0BE012E
:102E90006B5E7F4F85E090E00E94B8080E94DE01E3
:102EA00081E08C8789859A85AB85BC858093EB070B
:102EB0009093EC07A093ED07B093EE0704C00E9437
:102EC000A1098111BDCFCC5BDF4F0FB6F894DEBFF7
:102ED0000FBECDBFDF91CF91FF90EF90DF90CF90ED
:102EE0000895FC0186EB91E0918380831282138226
:102EF000148215821386128648EE53E060E070E07B
:102F000044875587668777872EE231E031872087AF
:102F1000978B868B108E118E128E138E84E080A379
:102F200008958F929F92AF92BF92CF92DF92EF92CD
:102F3000FF921F93CF93DF93CDB7DEB72C970FB6D9
:102F4000F894DEBF0FBECDBF20910E07222309F4F7
:102F5000B4C06B017C01CE0101960E948C1B89815B
:102F60009A810E94DF015E0127E0A20EB11C45019B
:102F700010E063E070E0812F0E94CB14F401819394
:102F80004F018823C9F01F5F143099F710E0F50155
:102F900081915F018D3159F0883149F08A51823039
:102FA00030F01F5F143099F70E94DE0186C060E1A7
:102FB00070E0812F0E941B08A12EB12C83EE93E0BC
:102FC0000197F1F742E860E070E0812F0E949C14C5
:102FD0004FEF62E070E0812F0E949C14C114D10475
:102FE00011F0B60113C08091050190910601019680
:102FF0008115F0EC9F0710F480E090EC90930601AF
:10300000809305016091050170910601812F0E9456
:10301000460D86E0E4E2F1E0DE01119601900D92AA
:103020008A95E1F7F70183818F778C8384818D8383
:1030300085818E83A7014E5F5F4F24E030E06CE016
:1030400070E0812F0E94A213B601812F0E94310DE2
:1030500026E030E0AE014F5F5F4F66E070E0812F09
:103060000E94A21361E070E0812F0E941B0827E0FC
:103070002A9DC0012B9D900D11249C012651394F92
:103080007901F9011182108222E030E0AE01455F42
:103090005F4F68E270E0812F0E94B5158B859C859B
:1030A000982789279827F7019383828316821582B0
:1030B00014820E94DE01812F01C084E02C960FB69D
:1030C000F894DEBF0FBECDBFDF91CF911F91FF906F
:1030D000EF90DF90CF90BF90AF909F908F9008952A
:1030E0008F929F92AF92BF92EF92FF920F931F9396
:1030F000CF93DF93CDB7DEB7A1970FB6F894DEBFBD
:103100000FBECDBF7C01FA01CB0119A2223008F419
:103110002AE08E010F5D1F4F822E912CA12CB12C25
:10312000BF01A50194010E94CC22F901CA010150FE
:1031300011096A3014F4605D01C0695CD8016C93B8
:10314000232B242B252B61F7B801C7010E94F00F18
:10315000A1960FB6F894DEBF0FBECDBFDF91CF9121
:103160001F910F91FF90EF90BF90AF909F908F9025
:103170000895CF93DF9390E0FC01EE55FF4F24912B
:10318000FC01E257FF4F8491882361F190E0880FA2
:10319000991FFC01E658FF4FC591D491FC01EC57F3
:1031A000FF4FA591B491611109C09FB7F894888130
:1031B000209582238883EC912E230BC0623061F42A
:1031C0009FB7F8948881322F309583238883EC91C0
:1031D0002E2B2C939FBF06C08FB7F894E8812E2B1F
:1031E00028838FBFDF91CF9108958F929F92AF92E6
:1031F000BF92CF92DF92EF92FF926B017C010E940F
:10320000270F4B015C01C114D104E104F104F1F07A
:103210000E94270FDC01CB0188199909AA09BB0973
:10322000883E9340A105B10570F321E0C21AD10890
:10323000E108F10888EE880E83E0981EA11CB11CFD
:10324000C114D104E104F10419F7DDCFFF90EF9030
:10325000DF90CF90BF90AF909F908F9008954F9246
:103260005F926F927F928F929F92AF92BF92CF9216
:10327000DF92EF92FF920F931F93CF93DF93CDB71F
:10328000DEB763970FB6F894DEBF0FBECDBF7C01EB
:103290005B013A01FB0120E080E090E06AE03191BF
:1032A000332309F140ED430F4A3080F4689FA001B9
:1032B000699F500D1124CA01C097830F911D37FDDE
:1032C0009A958F3F910559F350F313C03E3289F41C
:1032D000233079F0D301A20FB11D12968C932F5F8A
:1032E00080E090E0DCCF233021F4F301858381E09E
:1032F00021C0F70142815381648175818091E50786
:103300009091E607A091E707B091E80748175907A1
:103310006A077B0709F491C10E944C0F8701085F7F
:103320001F4F6F7077277C5FC8010E949212813017
:1033300019F080E090E0D9C186EB91E09A8389830F
:10334000F70182819381A481B5818B839C83AD83B6
:10335000BE8345E350E0BE016F5F7F4FC8010E940E
:10336000B413892B19F4C12CD12C62C10E944C0FCB
:10337000F7017783668342E050E0B7016A5F7F4FD1
:10338000C8010E94E21181E090E09A83898342E0C3
:1033900050E0BE016F5F7F4FC8010E94E21180E0E4
:1033A00091E09A83898342E050E0BE016F5F7F4FD6
:1033B000C8010E94E2111A82198242E050E0BE0167
:1033C0006F5F7F4FC8010E94E21142E050E0BE01F2
:1033D0006F5F7F4FC8010E94E21142E050E0BE01E2
:1033E0006F5F7F4FC8010E94E2114501F5018081A6
:1033F000882301F164015601F60181912F01882390
:1034000021F08E3211F06201F6CFC818D9081C14D1
:103410001D0474F4CD8641E050E0BE01635F7F4F30
:10342000C8010E94E211A601B401C8010E94E21184
:103430004201DCCF1D8641E050E0BE01635F7F4F5B
:10344000C8010E94E211C12CDD24D394DA82C98222
:1034500042E050E0BE016F5F7F4FC8010E94E21161
:10346000DA82C98242E050E0BE016F5F7F4FC8013F
:103470000E94E211C8010E94DA14892B09F473CF6B
:10348000E3E0AE2EB12C230122E0420E511C0E943B
:103490004C0F3B014C01C8010E94861118161906F9
:1034A000A4F00E944C0FDC01CB0186199709A809F2
:1034B000B90989389341A105B105D0F462E370E000
:1034C00080E090E00E94F518E6CFF7014281538139
:1034D00064817581808D918DA28DB38D48175907B8
:1034E0006A077B0749F4848D958DC59729F409C037
:1034F000CC24CA94DC2C93C05EEFC52EDD24DA9474
:103500008EC0F70181A192A10C970CF4E9C04CE0A8
:1035100050E0BE016F5F7F4FC8010E9412118B8186
:103520009C819827892798279A8B898BF701468158
:10353000578129813A814217530709F0C2C097FF8A
:10354000C0C08F709270892B09F0C0C06F807884E2
:103550007624672476246114710409F4BCC0C12C5C
:10356000D12C8D819E81982789279827C816D90646
:1035700008F466C0812C912C41E050E0BE016D5EE4
:103580007F4FC8010E9412114B89842F807C09F063
:1035900076C0442331F050E060E070E0C8010E9442
:1035A00012118B898111E8CF42E050E0BE01615FCA
:1035B0007F4FC8010E94121142E050E0BE01635FDC
:1035C0007F4FC8010E94121144E050E060E070E0BB
:1035D000C8010E94121142E050E0BE016F5E7F4FB1
:1035E000C8010E9412118F85988949895A898115CD
:1035F000914009F04DC0CD84DE84DC24CD24DC2450
:1036000081E0C816D10409F043C04115544009F0C7
:1036100053C044E050E0B201C8010E94121121E001
:10362000A21AB10829F0FFEFCF16DF0609F42FCF59
:10363000C8010E94DB10C60158C08EEF9FEF55C035
:1036400041E050E0BE01635F7F4FC8010E9412114C
:103650004D85442331F050E060E070E0C8010E94E5
:1036600012118D858111ECCF44E050E060E070E0F4
:10367000C8010E941211FFEFCF1ADF0A72CF41E09A
:1036800050E060E070E0C8010E9412111B8A89CFEF
:1036900054274527542760E070E0C8010E941211AA
:1036A000FFEF8F1A9F0A6814790409F065CF96EF2F
:1036B000C92EDD24DA94B3CF77EFC72EDD24DA9458
:1036C000AECF4CEFC42EDD24DA94A9CF3BEFC32E4E
:1036D000DD24DA94A4CF2AEFC22EDD24DA949FCF22
:1036E0008DEFC82EDD24DA949ACF63960FB6F89446
:1036F000DEBF0FBECDBFDF91CF911F910F91FF9025
:10370000EF90DF90CF90BF90AF909F908F907F9081
:103710006F905F904F90089520E5FC01208321E099
:103720002183089590E0FC01EA54FF4F2491FC01AD
:10373000EE55FF4F3491FC01E257FF4FE491EE2329
:10374000B1F1222339F1233091F038F42130A9F07E
:10375000223001F584B58F7D12C0273091F02830DA
:10376000A1F02430B9F4809180008F7D03C0809156
:1037700080008F77809380000DC084B58F7784BDE3
:1037800009C08091B0008F7703C08091B0008F7D19
:103790008093B000F0E0EE0FFF1FEC57FF4FA591B4
:1037A000B4918FB7F894EC91E32BEC938FBF08950D
:1037B00084E191E008953F924F925F926F927F92E1
:1037C0008F929F92AF92BF92CF92DF92EF92FF9231
:1037D0000F931F93CF93DF9380912007811103C034
:1037E00080E090E034C200911F0747E0049F800111
:1037F00011240D5D184F20E2622E3AE0E32EF12CE9
:1038000044E6842E912C58EEC52E53E0D52E60E16F
:10381000A62E67E2B62E7DE2772E3AE081E3582E9F
:10382000C0911E07C83008F0FBC120912207D0E0EC
:10383000CA5ED84FD80116968C91682F082E000CBE
:10384000770B472F441F4427441F50E08C3090F4DF
:103850008A3008F00EC1863048F4843008F074C015
:10386000882399F0833009F442C0B5C1893009F446
:10387000A1C0B1C18338D9F120F48E3008F44CC115
:10388000AAC1863808F460C0A6C18091140790913F
:103890001507892B29F6F8018081211102C087FDC7
:1038A00097C087FD8195233078F4843630F022303C
:1038B00011F0588273C0845602C08A3058F0632FCA
:1038C0000E940D23805DF7C08A3020F0632F0E9494
:1038D0000D23892F805D88838091140790911507AF
:1038E0000196909315078093140724E012C18091EC
:1038F000140790911507D80114966D917C91159736
:103900008617970708F08CCF6D917C911197460F21
:10391000571FFA01E80FF91F8081888380911407EF
:10392000909115070196909315078093140751E025
:1039300040E014966D917C9115976817790709F00E
:1039400050E0E52FF42F49C16091140770911507DD
:10395000460F571FD8011496ED91FC9115974E17FD
:103960005F0708F05DCFED91FC91E40FF51F9081AA
:10397000213051F018F0223099F02DC1672B21F041
:103980008F77853009F4EBC0892F82958F708A304C
:1039900010F490E301C097E5980F988322E01BC1D3
:1039A000892F8F708A3010F490E301C097E5890F5A
:1039B0008883FBC08091140790911507892B09F02B
:1039C0002FCFD8018D919C9197FF09C0211102C082
:1039D0007882C6C0919581959109B1E001C0B0E0AF
:1039E000883EE3E09E0744F48A3091055CF084361B
:1039F000910554F0A2E00BC08031F7E29F0734F04C
:103A0000A4E005C0A0E003C0A1E001C0A3E0422FF4
:103A100050E04B1B51096A2F70E0641775070CF4D6
:103A2000FFCE33243394412C4617570709F0312C2D
:103A3000E32DF42DB21BAB0FA23070F0A43030F0A8
:103A4000B5010E94192380E3860F10C0A33011F442
:103A5000B60105C0B40103C0B701AA2321F00E943A
:103A60001923CB01B7010E941923805D88832F5F42
:103A7000B4C04091140750911507452B09F0D0CEE2
:103A8000D8014D915C91223069F030F0243001F181
:103A9000A8F0253061F19FC08A3021F0222309F47B
:103AA0006DC067C0952F92959F709A3010F480E397
:103AB00001C087E5890F888323E08DC0952F9F7013
:103AC0009A3010F480E301C087E5890F888363C0D2
:103AD00094E0559547959A95E1F74F704A3010F468
:103AE00080E301C087E5480F488325E074C04F702C
:103AF0004A3010F480E301C087E5480F4883809185
:103B00001407909115070196909315078093140759
:103B100020E0E1E0F0E061C06091140770911507CA
:103B2000460F571FD8011496ED91FC9115974E172B
:103B30005F0708F075CEED91FC91E40FF51F9081C1
:103B4000233018F4213030F00DC02330D9F0243068
:103B500021F141C06115710571F060FD13C06882EB
:103B600021E039C08D3071F460FD0CC0213031F09E
:103B700022E088E704C08D3029F421E080E38883C7
:103B80002F5F29C092959F709A3010F480E301C096
:103B900087E5980F988324E01EC09F709A3010F438
:103BA00080E301C087E5980F988380911407909176
:103BB00015070196909315078093140761E020E0A4
:103BC000F801448155814817590709F060E0E62F54
:103BD000F22F20E002C0E0E0F0E020932207809185
:103BE0001E078F5F80931E07319709F019CE8091D1
:103BF0001F0791E0980F953018F490931F0703C0AA
:103C0000845080931F07109215071092140710928A
:103C100022078091200781508093200781110EC0D8
:103C200080911E07882309F4DBCD809121078C7FCA
:103C300081608093210781E090E009C000911F0717
:103C4000F7E00F9F800111240D5D184FE6CDDF9145
:103C5000CF911F910F91FF90EF90DF90CF90BF9089
:103C6000AF909F908F907F906F905F904F903F901C
:103C70000895CF93DF93CDB7DEB728970FB6F894AA
:103C8000DEBF0FBECDBF789484B5826084BD84B59D
:103C9000816084BD85B5826085BD85B5816085BD47
:103CA00080916E00816080936E00109281008091FF
:103CB0008100826080938100809181008160809387
:103CC0008100809180008160809380008091B100AC
:103CD00084608093B1008091B00081608093B000D7
:103CE00080917A00846080937A0080917A0082606B
:103CF00080937A0080917A00816080937A0080912D
:103D00007A00806880937A001092C10089E090E088
:103D100098878F8361E08DE00E94B91861E086E0AA
:103D20000E94B91861E085E00E94B91861E083E162
:103D30000E94B91861E080E10E94B91861E081E158
:103D40000E94B91861E085E00E94B91860E083E044
:103D50000E94B91881EB90E09093030180930201D7
:103D600080916900837F846080936900E99A61E0B3
:103D700084E00E94B91884E00E94921B61E08AE00E
:103D80000E94B9188AE08093040186EB91E09A833F
:103D900089838091060890910708A0910808B09146
:103DA00009088B839C83AD83BE83CE0101960E945C
:103DB000BA16E0910E07E353E53030F4F0E0E15E2F
:103DC000FE4F8081811113C06AE572E086E497E0BE
:103DD0000E94F00F63EE71E086E497E00E94F00F1E
:103DE00061E070E080E090E00E94F518F9CF60E0BB
:103DF00080E00E94B918E0915607F091570782E0E1
:103E00008083E0915207F09153071082E0915407AC
:103E1000F091550780E1808310925E07E0915A0788
:103E2000F0915B0786E08083E0915807F091590795
:103E3000808180618083E0915807F09159078081EB
:103E400088608083E0915807F091590780818068ED
:103E50008083E0915807F091590780818F7D80839E
:103E600061E082E00E94B91810921E0710921F07AD
:103E70001092200710922107109215071092140734
:103E80001092220780E197E09093B9058093B805DE
:103E90001092CB051092CA051092CC0580E195E0F6
:103EA0009093DE068093DD0688EB95E09093E00624
:103EB0008093DF061092D1061092D0061092D3069E
:103EC0001092D2061092D5061092D4061092D70600
:103ED0001092D6061092D9061092D8061092DB06E0
:103EE0001092DA061092DC060E94D81B90934F06BF
:103EF00080934E0689E193E0909311078093100719
:103F00008DE496E09093130780931207AE01495F0A
:103F10005F4F60EA72E084E191E00E9467020197DE
:103F200049F08DE0E82E9AE0B92E20E2A22E37E08B
:103F3000F32E28C062E084E191E00E943A02892BCE
:103F4000C9F3EFCF8091DC068770823009F470C02E
:103F500020F58823B9F1813009F454C08091CC0553
:103F6000823009F453C1833009F455C1813009F41A
:103F700043C18091100790911107892B09F050C11E
:103F80000E9473078DE496E00E949A0280914E068B
:103F900090914F06892BB1F6E1CF833009F49BC095
:103FA0008430E1F6E091DD06F091DE06309709F00D
:103FB00012C11092D1061092D0068091DC06887F43
:103FC0008093DC061092DB061092DA06E0914E0632
:103FD000F0914F0680818111C1CF809112019091A3
:103FE0001301DC01ED91FC910084F185E02D099530
:103FF0009093DB068093DA068091DC06887F8160EF
:104000008093DC0680914E0690914F06FC01208142
:10401000211108C264E00E943A02009709F49ECF81
:1040200097FD00C28091DC06887F82608093DC0669
:104030008091DA069091DB06892B09F4F3C181E0C7
:1040400090E09093D9068093D8060091D006109105
:10405000D106E0914E06F0914F0680818111E2C1B8
:104060008091120190911301DC01ED91FC9100848B
:10407000F185E02D09952091D8063091D9062F3F82
:10408000310519F010F02FEF30E08217930708F494
:104090009C01922E3093D9062093D806F801E05B5C
:1040A000F94F6F0110E0191580F480911201909181
:1040B0001301DC01ED91FC910284F385E02D09955B
:1040C000F60181936F011F5FEECF8091DC06887F40
:1040D00083608093DC0680914E0690914F06DC0150
:1040E0002C9121119FC161E00E943A02009709F4CE
:1040F00035CF97FD97C18091DC06887F82608093E1
:10410000DC068091DA069091DB06009729F0019792
:104110009093DB068093DA068091D0069091D106C9
:10412000FC01E35BF94F23812F832D3011F02A30FE
:1041300051F5E982BA8242E050E0BE016F5F7F4FE5
:104140008DE496E00E941903E091DD06F091DE0611
:104150003097A1F02091D0063091D10640E556E08D
:104160006DE476E08091DF069091E0060995892B59
:1041700029F48091DC06887F846057C11092D106B3
:104180001092D00623C0283081F40097F9F02983DB
:10419000AA822B8301979093D1068093D00643E0A7
:1041A00050E0BE016F5F7F4F0DC08034910570F409
:1041B00001969093D1068093D00641E050E0BE0175
:1041C000695F7F4F8DE496E00E9419038091DA06C3
:1041D00080FD2ECFC3CE2091D0063091D10640E590
:1041E00056E06DE476E08091DF069091E006099557
:1041F000892B09F0DECEB2CEE091B805F091B90579
:1042000080898111B6CE1092CC05B3CE88EB95E0B3
:104210000E94CD04AECE88EB95E00E949703A9CE14
:1042200080912007811105C080911E07882309F421
:10423000A7CE80912107982F937009F083C08C7FBF
:104240008093210710921E0790912007992309F46B
:104250007DC020911F0730E0F29EF001F39EF00D2B
:104260001124E05FF84F918D492F4F77433009F0CB
:104270005CC0C0901407D09015070789108D0C19E9
:104280001D090830110558F0826080932107013420
:10429000110510F000E410E000931E0746C0816095
:1042A00080932107A8010930110510F048E050E083
:1042B00040931E07F29EF001F39EF00D1124E05F83
:1042C000F84F61E070E0933811F060E070E06C0D41
:1042D0007D1D83899489680F791F86E197E00E948C
:1042E0004C2380911E0790E008171907C1F48091B4
:1042F0001F0791E0980F953018F490931F0703C0A3
:10430000845080931F07809120078150809320075D
:1043100010921507109214071092220706C0C80EBB
:10432000D91ED0921507C09214078091210783707F
:10433000823009F47DC080911E07883038F40E94D5
:10434000DB1B04C0913009F073C0F9CF1091210735
:10435000137009F415CEE0911007F0911107309712
:1043600009F40ECEC0901F07D12C113091F0FC9CA7
:10437000D001FD9CB00D1124A05FB84F53966D91F4
:104380007C9154978091140790911507680F791FBD
:1043900002C066E177E040911E0750E0809112076D
:1043A000909113070995181619060CF0E9CD1230F3
:1043B00089F520911E078091140790911507820FAF
:1043C000911D9093150780931407FC9CF001FD9CB0
:1043D000F00D1124E05FF84F2789308D8217930785
:1043E000C8F080911F0791E0980F953018F49093D2
:1043F0001F0703C0845080931F07809120078823E4
:1044000019F081508093200710921507109214071D
:1044100010922207809121078C7F809321071092B0
:104420001E0707CF8091DC06887F8093DC0696CD3F
:104430001091210713708FCFE6E4F7E01382128208
:1044400048EE53E060E070E04483558366837783F1
:1044500088E591E09183808385EC90E0958784875F
:1044600084EC90E09787868780EC90E0918B808B3E
:1044700081EC90E0938B828B82EC90E0958B848B27
:1044800086EC90E0978B868B118E128E138E148E95
:10449000EAE0F8E086EB91E0918380831282138258
:1044A00014821582E3EEF7E09183808312821382F7
:1044B00014821582E0E1F8E09183808312821382F6
:1044C00014821582E6E1F8E09183808312821382E0
:1044D00014821582ECE1F8E09183808312821382CA
:1044E00014821582E2E2F8E09183808312821382C3
:1044F00014821582E8E2F8E09183808312821382AD
:1045000014821582EEE2F8E0918380831282138296
:1045100014821582E9EEF7E0918380831282138280
:1045200014821582E4E3F8E091838083128213827F
:1045300014821582E4E0F8E09183808339EA3283C3
:104540002EEF23831482A8ECA583EEEFF7E091838E
:10455000808332832383148281E08583EFEEF7E04A
:1045600013821282448355836683778388E891E0BF
:104570009183808384E0848788EE93E096878587A3
:1045800008950E94EE22A59F900DB49F900DA49FC8
:10459000800D911D11240895A1E21A2EAA1BBB1BA8
:1045A000FD010DC0AA1FBB1FEE1FFF1FA217B307FF
:1045B000E407F50720F0A21BB30BE40BF50B661F15
:1045C000771F881F991F1A9469F7609570958095D9
:1045D00090959B01AC01BD01CF010895A29FB00150
:1045E000B39FC001A39F700D811D1124911DB29F27
:1045F000700D811D1124911D0895DB018F939F93F0
:104600000E94C122BF91AF91A29F800D911DA39FD7
:10461000900DB29F900D11240895991B79E004C06C
:10462000991F961708F0961B881F7A95C9F78095F1
:10463000089597FB072E16F4009407D077FD09D054
:104640000E94332307FC05D03EF4909581959F4F3F
:104650000895709561957F4F0895EE0FFF1F0590A7
:10466000F491E02D0994AA1BBB1B51E107C0AA1FBE
:10467000BB1FA617B70710F0A61BB70B881F991F03
:104680005A95A9F780959095BC01CD01089581E0D8
:1046900090E0F8940C945C23FB01DC0102C00190D3
:1046A0000D9241505040D8F70895DC0101C06D9340
:0C46B00041505040E0F70895F894FFCF0F
:1046BC00060E060E0A00C0DEADBEEFFEED010000D8
:1046CC000000460700000000000D015002550201D9
:1046DC000200000301005E000000000000005E10FC
:1046EC00E2111A015D1074103111E9109212991037
:1046FC00DB10B4132B12DA1486111211A8009800D7
:10470C009400900000000000B80E070E310E050F4B
:10471C006707400E540E00000000620E070E1A01CF
:10472C001901620E620E620E00000000620E070E8E
:10473C001A0119010000000083102215991384132B
:10474C007D115A11F810FD1311137411D912B612F0
:10475C0011010E010C01781002014016F815C71555
:10476C00FE0000000000640E00000000620E474FC7
:10477C00543A200050414E494321212100436F6D92
:10478C00706C6574652E20476F74200053746F70C5
:10479C0065642E0D0A00556E7265636F676E697ADB
:1047AC00656420636F6D6D616E642E20557365209A
:1047BC002268656C702220746F20636865636B2EB1
:1047CC000D0A00436F6D6D616E64733A2068656C01
:1047DC00702C206D6561730D0A004572726F72202A
:1047EC006578747261637420617267756D656E743F
:1047FC00200042616420617267756D656E742000E3
:10480C0068656C70006D6561730045746865726EE7
:10481C00657420736869656C6420776173206E6FB2
:10482C007420666F756E642E2020536F7272792C13
:10483C002063616E27742072756E20776974686FBF
:10484C0075742068617264776172652E203A280055
:0A485C00537461727465640D0A0064
:00000001FF
